{
	"whitelist.sol": {
		"Storage": {
			"abi": [
				{
					"inputs": [],
					"stateMutability": "nonpayable",
					"type": "constructor"
				},
				{
					"inputs": [],
					"name": "is_whitelist_2",
					"outputs": [
						{
							"internalType": "bool",
							"name": "",
							"type": "bool"
						}
					],
					"stateMutability": "view",
					"type": "function"
				}
			],
			"devdoc": {
				"kind": "dev",
				"methods": {},
				"version": 1
			},
			"evm": {
				"assembly": "    /* \"whitelist.sol\":63:750  contract Storage {\r... */\n  mstore(0x40, 0x80)\n    /* \"whitelist.sol\":171:290  constructor() {\r... */\n  callvalue\n  dup1\n  iszero\n  tag_1\n  jumpi\n  0x00\n  dup1\n  revert\ntag_1:\n  pop\n    /* \"whitelist.sol\":196:205  address a */\n  0x00\n    /* \"whitelist.sol\":208:250  0xb2f8c60b26a53Ae960536333311CB4a04f519084 */\n  0xb2f8c60b26a53ae960536333311cb4a04f519084\n    /* \"whitelist.sol\":196:250  address a = 0xb2f8c60b26a53Ae960536333311CB4a04f519084 */\n  swap1\n  pop\n    /* \"whitelist.sol\":281:282  1 */\n  0x01\n    /* \"whitelist.sol\":261:275  whitelist_addr */\n  0x00\n    /* \"whitelist.sol\":261:278  whitelist_addr[a] */\n  dup1\n    /* \"whitelist.sol\":276:277  a */\n  dup4\n    /* \"whitelist.sol\":261:278  whitelist_addr[a] */\n  0xffffffffffffffffffffffffffffffffffffffff\n  and\n  0xffffffffffffffffffffffffffffffffffffffff\n  and\n  dup2\n  mstore\n  0x20\n  add\n  swap1\n  dup2\n  mstore\n  0x20\n  add\n  0x00\n  keccak256\n    /* \"whitelist.sol\":261:282  whitelist_addr[a] = 1 */\n  dup2\n  swap1\n  sstore\n  pop\n    /* \"whitelist.sol\":185:290  {\r... */\n  pop\n    /* \"whitelist.sol\":63:750  contract Storage {\r... */\n  dataSize(sub_0)\n  dup1\n  dataOffset(sub_0)\n  0x00\n  codecopy\n  0x00\n  return\nstop\n\nsub_0: assembly {\n        /* \"whitelist.sol\":63:750  contract Storage {\r... */\n      mstore(0x40, 0x80)\n      callvalue\n      dup1\n      iszero\n      tag_1\n      jumpi\n      0x00\n      dup1\n      revert\n    tag_1:\n      pop\n      jumpi(tag_2, lt(calldatasize, 0x04))\n      shr(0xe0, calldataload(0x00))\n      dup1\n      0x7518a2a7\n      eq\n      tag_3\n      jumpi\n    tag_2:\n      0x00\n      dup1\n      revert\n        /* \"whitelist.sol\":531:747  function is_whitelist_2() public view returns(bool){\r... */\n    tag_3:\n      tag_4\n      tag_5\n      jump\t// in\n    tag_4:\n      mload(0x40)\n      tag_6\n      swap2\n      swap1\n      tag_7\n      jump\t// in\n    tag_6:\n      mload(0x40)\n      dup1\n      swap2\n      sub\n      swap1\n      return\n    tag_5:\n        /* \"whitelist.sol\":577:581  bool */\n      0x00\n        /* \"whitelist.sol\":627:628  1 */\n      0x01\n        /* \"whitelist.sol\":597:611  whitelist_addr */\n      0x00\n        /* \"whitelist.sol\":597:623  whitelist_addr[msg.sender] */\n      dup1\n        /* \"whitelist.sol\":612:622  msg.sender */\n      caller\n        /* \"whitelist.sol\":597:623  whitelist_addr[msg.sender] */\n      0xffffffffffffffffffffffffffffffffffffffff\n      and\n      0xffffffffffffffffffffffffffffffffffffffff\n      and\n      dup2\n      mstore\n      0x20\n      add\n      swap1\n      dup2\n      mstore\n      0x20\n      add\n      0x00\n      keccak256\n      sload\n        /* \"whitelist.sol\":597:628  whitelist_addr[msg.sender] == 1 */\n      eq\n        /* \"whitelist.sol\":593:740  if (whitelist_addr[msg.sender] == 1)\r... */\n      iszero\n      tag_9\n      jumpi\n        /* \"whitelist.sol\":661:665  true */\n      0x01\n        /* \"whitelist.sol\":654:665  return true */\n      swap1\n      pop\n      jump(tag_8)\n        /* \"whitelist.sol\":593:740  if (whitelist_addr[msg.sender] == 1)\r... */\n    tag_9:\n        /* \"whitelist.sol\":723:728  false */\n      0x00\n        /* \"whitelist.sol\":716:728  return false */\n      swap1\n      pop\n        /* \"whitelist.sol\":531:747  function is_whitelist_2() public view returns(bool){\r... */\n    tag_8:\n      swap1\n      jump\t// out\n        /* \"#utility.yul\":7:116   */\n    tag_12:\n        /* \"#utility.yul\":88:109   */\n      tag_14\n        /* \"#utility.yul\":103:108   */\n      dup2\n        /* \"#utility.yul\":88:109   */\n      tag_15\n      jump\t// in\n    tag_14:\n        /* \"#utility.yul\":83:86   */\n      dup3\n        /* \"#utility.yul\":76:110   */\n      mstore\n        /* \"#utility.yul\":7:116   */\n      pop\n      pop\n      jump\t// out\n        /* \"#utility.yul\":122:332   */\n    tag_7:\n        /* \"#utility.yul\":209:213   */\n      0x00\n        /* \"#utility.yul\":247:249   */\n      0x20\n        /* \"#utility.yul\":236:245   */\n      dup3\n        /* \"#utility.yul\":232:250   */\n      add\n        /* \"#utility.yul\":224:250   */\n      swap1\n      pop\n        /* \"#utility.yul\":260:325   */\n      tag_17\n        /* \"#utility.yul\":322:323   */\n      0x00\n        /* \"#utility.yul\":311:320   */\n      dup4\n        /* \"#utility.yul\":307:324   */\n      add\n        /* \"#utility.yul\":298:304   */\n      dup5\n        /* \"#utility.yul\":260:325   */\n      tag_12\n      jump\t// in\n    tag_17:\n        /* \"#utility.yul\":122:332   */\n      swap3\n      swap2\n      pop\n      pop\n      jump\t// out\n        /* \"#utility.yul\":338:428   */\n    tag_15:\n        /* \"#utility.yul\":372:379   */\n      0x00\n        /* \"#utility.yul\":415:420   */\n      dup2\n        /* \"#utility.yul\":408:421   */\n      iszero\n        /* \"#utility.yul\":401:422   */\n      iszero\n        /* \"#utility.yul\":390:422   */\n      swap1\n      pop\n        /* \"#utility.yul\":338:428   */\n      swap2\n      swap1\n      pop\n      jump\t// out\n\n    auxdata: 0xa2646970667358221220d02c0069317ffefe716c6255bac552ba88a2266a6dd735615cb28f5ff04da27964736f6c63430008070033\n}\n",
				"bytecode": {
					"linkReferences": {},
					"object": "608060405234801561001057600080fd5b50600073b2f8c60b26a53ae960536333311cb4a04f519084905060016000808373ffffffffffffffffffffffffffffffffffffffff1673ffffffffffffffffffffffffffffffffffffffff16815260200190815260200160002081905550506101078061007e6000396000f3fe6080604052348015600f57600080fd5b506004361060285760003560e01c80637518a2a714602d575b600080fd5b60336047565b604051603e919060ac565b60405180910390f35b600060016000803373ffffffffffffffffffffffffffffffffffffffff1673ffffffffffffffffffffffffffffffffffffffff16815260200190815260200160002054141560975760019050609c565b600090505b90565b60a68160c5565b82525050565b600060208201905060bf6000830184609f565b92915050565b6000811515905091905056fea2646970667358221220d02c0069317ffefe716c6255bac552ba88a2266a6dd735615cb28f5ff04da27964736f6c63430008070033",
					"opcodes": "PUSH1 0x80 PUSH1 0x40 MSTORE CALLVALUE DUP1 ISZERO PUSH2 0x10 JUMPI PUSH1 0x0 DUP1 REVERT JUMPDEST POP PUSH1 0x0 PUSH20 0xB2F8C60B26A53AE960536333311CB4A04F519084 SWAP1 POP PUSH1 0x1 PUSH1 0x0 DUP1 DUP4 PUSH20 0xFFFFFFFFFFFFFFFFFFFFFFFFFFFFFFFFFFFFFFFF AND PUSH20 0xFFFFFFFFFFFFFFFFFFFFFFFFFFFFFFFFFFFFFFFF AND DUP2 MSTORE PUSH1 0x20 ADD SWAP1 DUP2 MSTORE PUSH1 0x20 ADD PUSH1 0x0 KECCAK256 DUP2 SWAP1 SSTORE POP POP PUSH2 0x107 DUP1 PUSH2 0x7E PUSH1 0x0 CODECOPY PUSH1 0x0 RETURN INVALID PUSH1 0x80 PUSH1 0x40 MSTORE CALLVALUE DUP1 ISZERO PUSH1 0xF JUMPI PUSH1 0x0 DUP1 REVERT JUMPDEST POP PUSH1 0x4 CALLDATASIZE LT PUSH1 0x28 JUMPI PUSH1 0x0 CALLDATALOAD PUSH1 0xE0 SHR DUP1 PUSH4 0x7518A2A7 EQ PUSH1 0x2D JUMPI JUMPDEST PUSH1 0x0 DUP1 REVERT JUMPDEST PUSH1 0x33 PUSH1 0x47 JUMP JUMPDEST PUSH1 0x40 MLOAD PUSH1 0x3E SWAP2 SWAP1 PUSH1 0xAC JUMP JUMPDEST PUSH1 0x40 MLOAD DUP1 SWAP2 SUB SWAP1 RETURN JUMPDEST PUSH1 0x0 PUSH1 0x1 PUSH1 0x0 DUP1 CALLER PUSH20 0xFFFFFFFFFFFFFFFFFFFFFFFFFFFFFFFFFFFFFFFF AND PUSH20 0xFFFFFFFFFFFFFFFFFFFFFFFFFFFFFFFFFFFFFFFF AND DUP2 MSTORE PUSH1 0x20 ADD SWAP1 DUP2 MSTORE PUSH1 0x20 ADD PUSH1 0x0 KECCAK256 SLOAD EQ ISZERO PUSH1 0x97 JUMPI PUSH1 0x1 SWAP1 POP PUSH1 0x9C JUMP JUMPDEST PUSH1 0x0 SWAP1 POP JUMPDEST SWAP1 JUMP JUMPDEST PUSH1 0xA6 DUP2 PUSH1 0xC5 JUMP JUMPDEST DUP3 MSTORE POP POP JUMP JUMPDEST PUSH1 0x0 PUSH1 0x20 DUP3 ADD SWAP1 POP PUSH1 0xBF PUSH1 0x0 DUP4 ADD DUP5 PUSH1 0x9F JUMP JUMPDEST SWAP3 SWAP2 POP POP JUMP JUMPDEST PUSH1 0x0 DUP2 ISZERO ISZERO SWAP1 POP SWAP2 SWAP1 POP JUMP INVALID LOG2 PUSH5 0x6970667358 0x22 SLT KECCAK256 0xD0 0x2C STOP PUSH10 0x317FFEFE716C6255BAC5 MSTORE 0xBA DUP9 LOG2 0x26 PUSH11 0x6DD735615CB28F5FF04DA2 PUSH26 0x64736F6C63430008070033000000000000000000000000000000 "
				},
				"gasEstimates": {
					"creation": {
						"codeDepositCost": "52600",
						"executionCost": "22322",
						"totalCost": "74922"
					},
					"external": {
						"is_whitelist_2()": "2547"
					},
					"internal": {
						"is_whitelist(address)": "infinite"
					}
				},
				"methodIdentifiers": {
					"is_whitelist_2()": "7518a2a7"
				}
			},
			"storageLayout": {
				"storage": [
					{
						"astId": 5,
						"contract": "whitelist.sol:Storage",
						"label": "whitelist_addr",
						"offset": 0,
						"slot": "0",
						"type": "t_mapping(t_address,t_uint256)"
					}
				],
				"types": {
					"t_address": {
						"encoding": "inplace",
						"label": "address",
						"numberOfBytes": "20"
					},
					"t_mapping(t_address,t_uint256)": {
						"encoding": "mapping",
						"key": "t_address",
						"label": "mapping(address => uint256)",
						"numberOfBytes": "32",
						"value": "t_uint256"
					},
					"t_uint256": {
						"encoding": "inplace",
						"label": "uint256",
						"numberOfBytes": "32"
					}
				}
			},
			"userdoc": {
				"kind": "user",
				"methods": {},
				"version": 1
			}
		}
	}
}